:020000040000fa
:08000000060c040000000000e2
:020000040000fa
:10000800341900000c19000012190000281900000a
:100018002e190000341900003419000034190000aa
:100028003419000034190000341900004c1600007f
:100038003419000034190000341900008c0e000037
:100048007c1300003419000034190000fc0f000074
:10005800741000003419000034190000341900002d
:10006800da10000060110000341900003419000093
:100078003419000034190000341900003419000044
:10008800341900003419000034190000d60c00009f
:1000980034190000341900007815000028150000f4
:1000a8003419000034190000341900003419000014
:1000b8003419000034190000341900003419000004
:1000c80034190000341900003419000034190000f4
:1000d80034190000341900003419000034190000e4
:1000e80034190000341900003419000034190000d4
:1000f80034190000341900003419000034190000c4
:1001080034190000341900003419000034190000b3
:1001180034190000341900003419000034190000a3
:100128003419000034190000341900003419000093
:100138003419000034190000341900003419000083
:100148003419000034190000341900003419000073
:100158003419000034190000341900003419000063
:10016800341900003419000014140000ce140000e3
:100178003419000034190000341900003419000043
:100188003419000034190000341900003419000033
:100198003419000034190000341900003419000023
:1001a8003419000034190000341900003419000013
:1001b8003419000034190000341900003419000003
:1001c80034190000341900003419000034190000f3
:1001d80034190000341900003419000034190000e3
:1001e80034190000341900003419000034190000d3
:0801f800341900003419000065
:020000040000fa
:10020800341900000c190000121900002819000008
:100218002e190000341900003419000034190000a8
:100228003419000034190000341900004c1600007d
:100238003419000034190000341900008c0e000035
:100248007c1300003419000034190000fc0f000072
:10025800741000003419000034190000341900002b
:10026800da10000060110000341900003419000091
:100278003419000034190000341900003419000042
:10028800341900003419000034190000d60c00009d
:1002980034190000341900007815000028150000f2
:1002a8003419000034190000341900003419000012
:1002b8003419000034190000341900003419000002
:1002c80034190000341900003419000034190000f2
:1002d80034190000341900003419000034190000e2
:1002e80034190000341900003419000034190000d2
:1002f80034190000341900003419000034190000c2
:1003080034190000341900003419000034190000b1
:1003180034190000341900003419000034190000a1
:100328003419000034190000341900003419000091
:100338003419000034190000341900003419000081
:100348003419000034190000341900003419000071
:100358003419000034190000341900003419000061
:10036800341900003419000014140000ce140000e1
:100378003419000034190000341900003419000041
:100388003419000034190000341900003419000031
:100398003419000034190000341900003419000021
:1003a8003419000034190000341900003419000011
:1003b8003419000034190000341900003419000001
:1003c80034190000341900003419000034190000f1
:1003d80034190000341900003419000034190000e1
:1003e80034190000341900003419000034190000d1
:0803f800341900003419000063
:020000040000fa
:101800000810000001490000000100000fd4200072
:101810000e7f24000e018800000000000000200060
:101820000000e000020032000001200020028800d9
:10183000140007008e0607000000e00003003a00d5
:10184000a0bb2300010020000200370000002000a0
:1018500001002000810f7000010032001400070019
:10186000000020000000e000020032000000020042
:101870000000000044320200000000000040da00d6
:101880000000fe004440a900200520000000e00008
:101890000300320000002000a00188004440a8009e
:1018a000000006008a1f78008b1f780000000600e9
:1018b00091018800800478000000eb001a003700d6
:1018c000e284440032a0b4009905ba00e2844400e6
:1018d00032a0b4009906ba00e284440032a0b400f9
:1018e0000006eb00476fde00fd07b200636ce1000d
:1018f00003003a00ebff07000000eb000a0037008e
:10190000606ce10004003a00005deb008b05e9002b
:10191000fdff3e00040037006168e1000100320075
:101920000086eb000b00070019c7ba001905ba00c2
:101930000e04e00003003a000a00e000e0ff3a0075
:1019400000000600fe07b2009e0188008a047800ad
:10195000f5ff3700395dba008b05e9000c00320055
:10196000295dba008b05e900080032000c00e00098
:1019700003003a00e284440032a0b400f5ff3700cf
:1019800019ddba008b05e900faff3a008904e80086
:10199000e184440032a0b40000000600743a040060
:1019a00000000000023a0400000000003600f800c9
:1019b000809fbe00829fbe00849fbe00869fbe00a7
:1019c0000200fa0000f42100000f7800b0668000e9
:1019d000610060000000e0001700320090668000a7
:1019e0000000e8009066880091668000a066800094
:1019f000808f5000100036000000eb0090668800d9
:101a0000601680006800600000f0a7000000ea0097
:101a10000000e9004f00de00004078000080fb007d
:101a2000610060004300dd00611680000130a1000c
:101a30000100700060168800f066800061006000a0
:101a40000000e00018003200d06680000000e800ce
:101a5000d0668800d1668000e0668000808f5000ec
:101a6000110036000000eb00d0668800611680008f
:101a7000000220000080600000f0a7000000ea00e3
:101a80000000e9004f00de00004078000080fb000d
:101a9000610060004500dd00611680000150a1007a
:101aa00001007000601688003067800061006000ef
:101ab0000000e00017003200106780000000e8001e
:101ac000106788001167800020678000808f5000b9
:101ad000100036000000eb001067880060168000e0
:101ae0007000600000f0a7000000ea000000e900bc
:101af0004f00de00004078000080fb0061006000c5
:101b00004400dd00611680000140a100010070006a
:101b10006016880060678000610060000000e000df
:101b20004700320080ce2000104078000080fb008b
:101b30006a00b90000007800000f7800506780004c
:101b40000000e80050678800506780009e0f50003a
:101b50002f003e00815b800090052000808f5000a8
:101b60000300360050002000261607002200370030
:101b7000815b8000f0042000808f5000030036005d
:101b8000400020001f1607001b003700815b80000b
:101b900050042000808f50000300360030002000e9
:101ba0001816070014003700815b8000b003200086
:101bb000808f50000300360020002000111607001f
:101bc0000d003700815b800010032000808f5000e3
:101bd00003003600100020000a1607000600370038
:101be000815b800010032000808f500002003e00c7
:101bf0000000eb0003160700606680004400de0072
:101c0000674060000080fb00371607003a0037008d
:101c10005167800030062000808f5000030036009e
:101c20000000eb0050678800330037000000eb0035
:101c30002d1607000000eb00f21507002e003700fc
:101c4000606680004400de00674060000080fb00aa
:101c500025160700815b800090052000808f5000d2
:101c60000300360050002000e61507002200370070
:101c7000815b8000f0042000808f5000030036005c
:101c800040002000df1507001b003700815b80004b
:101c900050042000808f50000300360030002000e8
:101ca000d815070014003700815b8000b0032000c6
:101cb000808f50000300360020002000d11507005f
:101cc0000d003700815b800010032000808f5000e2
:101cd0000300360010002000ca1507000600370078
:101ce000815b800010032000808f500002003e00c6
:101cf0000000eb00c31507008760a9000080fa0010
:101d00004f03be004f02be004f01be004f00be0099
:101d10003600f900004006003600f800809fbe0043
:101d2000829fbe00849fbe00869fbe000e00fa0008
:101d3000e0b4200010079800e0b4200040079800ad
:101d400040822000200798000040eb00204f9800c0
:101d5000c02b200010658800d0b42000104078000f
:101d60000004e00090003200b15a800000302000f2
:101d70008080600000202000808f50004e003a00dc
:101d8000221107000000e000410032000000eb00db
:101d900010658800515a8000f0f02f00008060002c
:101da000505a880010b520009040780080b4200080
:101db0000148780000b520009040780090b42000e1
:101dc00001487800a0b5200010079800405a800014
:101dd000000040009e009000008040001007980026
:101de00060822000104078000080fb000000d100dd
:101df0006047980070822000200798001700370085
:101e00002e0090009040780090b4200001487800a7
:101e10002e0090000000e800200798002e0090009f
:101e20009040780080b4200001487800415a80003a
:101e30001e009000010878001e0090000080e8005d
:101e4000100798002e0090000000e800200798007e
:101e50006e4090000040e900604798006e4090009e
:101e60000004e000e6ff3a00505a80000010a00095
:101e7000505a8800505a80000030a100505a880003
:101e8000d0b420008040eb000148780046003700c5
:101e9000d0b420008040eb0001487800505a800008
:101ea0000020a000505a8800505a80000030a10045
:101eb000505a88003c003700b15a800000302000a2
:101ec0008080600000102000808f500036003a00b3
:101ed000d0b4200010407800e84f500029003a00ac
:101ee0000040eb00204f98000040eb00004f7800ce
:101ef000130037004e00900090407800314f98005a
:101f00002e00900090407800414f9800be4890000d
:101f10004e48900080cf50000200320010c0b30045
:101f2000204f98004e0090000000e8004007980005
:101f30002e0090000000e800200798001e4fe800e7
:101f40001e407800e74f5000eaff36002e48900010
:101f50000004e00004003200505a80000020a0007d
:101f6000505a880003003700505a80000000a0003b
:101f7000505a8800505a80000030a100505a880002
:101f800009003700505a80000020a000505a8800f5
:101f900090b520008040eb0001487800505a800046
:101fa0000030a100505a88001011800062006000cb
:101fb0000000e0000700320002003700301180000e
:101fc000004f780010118000620060000000e00007
:101fd000faff3a0011e1a90084e0a9000080fa00ac
:101fe0004f03be004f02be004f01be004f00be00b7
:101ff0003600f90000400600809fbe000200fa0093
:102000000621ef00810880000000280000806000a9
:102010000000e00001003a0011e1a800d0b4200067
:10202000104078000004e0000f003a0040822000d9
:1020300010408800104080003111800081407800fd
:1020400001487800104080000000e800104088003f
:10205000d0b42000104078008040e800d0b42000c8
:10206000014878001c0037000621ef00a032200054
:10207000000f7800d0b42000104078000080fb00f2
:102080009e0f50000d003100104080003111800083
:102090008140780001487800104080000000e8008e
:1020a00010408800d0b42000104078008040e80044
:1020b000d0b42000014878000700370010408000ad
:1020c000311180008140780001487800d0b42000b0
:1020d0008040eb00014878008560a9000080fa008c
:1020e0004f00be0000400600809fbe000000fa00c6
:1020f00090b520009040780080b520001040780016
:1021000080cf50002100310090b5200010407800b1
:10211000e14f500010003a00f0b420000040880069
:102120000e00370000408000104078000080fb0067
:1021300020118800004080000000e8000040880076
:1021400090b52000104078008040e80090b5200055
:1021500001487800010037000000000011118000e4
:1021600000202000008060000000e0000d003a0028
:1021700090b520009040780080b520001040780095
:1021800080cf5000e7ff39000600370090b52000ef
:102190008040eb000148780080b520008040eb00d3
:1021a000014878008580a9000080fa004f00be0039
:1021b00000400600809fbe000000fa004010800032
:1021c000680060000000e00038003200411080002c
:1021d00000022000008060000000e00021003200ca
:1021e000a169800000102000008060000000e00075
:1021f00005003200f040800001108000814078002e
:102200000148780004003700f04080000110800091
:102210008140780001487800f04080000000e8002c
:10222000f0408800c0d32000104078008040e800d3
:10223000c0d3200001487800c0d32000904078002f
:10224000b0d320001040780080cf500003003a0047
:10225000c06980000020a100c06988000782a80032
:1022600013003700c169800000ff2f00008060006c
:10227000c0698800c06980000020a000c069880093
:10228000b0d3200041c0b30001487800c0d3200083
:102290008040eb000148780000108000804078000a
:1022a00050d3200001487800010037004010800022
:1022b0008600a9000080fa004f00be000040060022
:1022c000809fbe00821f78000000fa00411080004d
:1022d00000402000008060000000e000f7003a00ad
:1022e00040108000680060000000e000d80032006c
:1022f000a169800000102000008060000000e00064
:1023000060003200c0698000700060000000e000e2
:1023100005003a00c16980000008200000806000cc
:102320000000e0002f003200c0d3200010407800f1
:102330008080fb00a0d32000104078000081fb00cb
:10234000b0d32000104078000080fb000000410066
:10235000808f50000b003d000662a800c06980001d
:102360000080a000c0698800c06980000070a100e2
:10237000c0698800c06980000040a100c069880071
:10238000d8003700c0d32000104078008080fb00c8
:10239000a0d32000104078000081fb00b0d32000c3
:1023a000104078000080fb0000004100808f50004a
:1023b00001003400ffff37000642a800c06980001a
:1023c0000040a100c0698800c06980000070a100c1
:1023d000c0698800c06980000020a100c069880031
:1023e000c0003700c169800000102000008060003c
:1023f0000000e000b6003200f040800001108000d4
:102400008140780001487800f04080000000e8003a
:10241000f0408800c0d32000104078008040e800e1
:10242000c0d3200001487800c0d3200010407800bd
:102430008080fb00a0d32000104078000081fb00ca
:10244000b0d32000104078000080fb000000410065
:10245000808f500002003a0006a2a8000100370059
:1024600006a2a9000682a800c06980000070a00032
:10247000c0698800c06980000080a100c069880030
:1024800098003700c16980000002200000806000d1
:102490000000e00061003a00c0d3200090407800c6
:1024a000a0d320001040780080cf50000a003a00ee
:1024b000c169800000042000008060000000e0008e
:1024c000050032000622a800c06980000050a0006c
:1024d000c069880083003700c0d320001040780016
:1024e0008080fb00a0d32000104078000081fb001a
:1024f000b0d32000104078000080fb0000004100b5
:10250000808f500008003a000642a800c0d3200087
:102510008040eb0001487800c06980000020a100e5
:10252000c06988006f003700c0d3200010407800d9
:102530008080fb00a0d32000104078000081fb00c9
:10254000b0d32000104078000080fb000000410064
:10255000808f500001003400ffff3700c0d32000ff
:1025600010407800e14f500012003a004110800006
:1025700000002800008060000000e0000d00320034
:10258000f04080000000e900f0408800c0d3200047
:10259000104078008040e900c0d320000148780056
:1025a000c06980000090a000c06988000642a800b1
:1025b0004c003700f0408000104078000080fb00a5
:1025c00010108800f04080000000e800f040880013
:1025d000c0d32000104078008040e800c0d3200025
:1025e00001487800c0d3200090407800a0d320009c
:1025f0001040780080cf500037003a00c169800059
:1026000000042000008060000000e00034003a0078
:10261000f0698000f040880032003700a069800037
:102620000080a000a0698800f0698000f040880068
:1026300050d32000104078000080fb00101088006c
:10264000c06980000040a000c069880025003700f4
:1026500040108000700060000000e00021003200a7
:10266000c169800000202000008060000000e000c0
:10267000050032000602a800c06980000090a10099
:10268000c069880017003700c1698000000420007d
:10269000008060000000e00004003200c06980009b
:1026a0000010a000c06988000e003700c0698000db
:1026b0000000a000c06988000a0037000642a80098
:1026c000cca2a900cc62a800cc82a800ffff3700f2
:1026d0000000000003003700000000000100370088
:1026e000000000008620a9000080fa004f01780059
:1026f0004f00be0000400600809fbe000000fa00b0
:1027000030d32000104078000004e0004100320087
:10271000f0ce200010407800e64f50000f003a0045
:1027200030d3200010407800e84f500004003a00f9
:10273000806980000010a0008069880035003700a3
:10274000806980000020a0008069880030d32000cc
:102750008040eb00014878002e003700f0ce2000ca
:1027600010407800e34f50000f003a0030d32000b3
:1027700010407800e84f500004003a008069800063
:102780000010a00080698800220037008069800066
:102790000020a0008069880030d320008040eb003a
:1027a000014878001b003700f0ce20001040780070
:1027b000f04f500011003a0020d3200090407800e4
:1027c00030d320001040780080cf500004003a0041
:1027d000806980000010a000806988000d0037002b
:1027e000806980000020a0008069880030d320002c
:1027f0008040eb00014878000600370080698000c7
:102800000020a0008069880030d320008040eb00c9
:102810000148780013e1a9008500a9000080fa00b2
:102820004f00be0000400600809fbe000200fa007c
:1028300080698000620060000000e00051003a0002
:102840000a21ef009108800000002800008060004d
:102850000000e00001003a0013e1a80030d320009e
:10286000104078000004e00010003a00e0ce2000a4
:102870004040880040408000b112800081407800d4
:1028800001487800404080000000e8004040880097
:1028900030d32000104078008040e80030d3200082
:1028a000014878000a68ef0038003700e0ce2000c9
:1028b00090407800f0cc20001040780080cf50008d
:1028c00004003200e0ce2000104078000004e00058
:1028d00025003a000a21ef0040408000b11280003c
:1028e000814078000148780030d320001040780003
:1028f0008040e80030d320000148780030d3200029
:1029000010407800e24f500007003a00404080003d
:1029100010407800f04f500003003a004040800023
:10292000104078000ae8b70030d32000104078004b
:10293000e74f500008003a000ac8bf00f04f5000af
:1029400005003a004040800010407800e940400017
:1029500020d3200001487800404080000000e800bb
:10296000404088000900370013e1a900b11280003f
:10297000010f780030d320008040eb000148780040
:1029800002003700b1128000010f78008e40a900cc
:102990000080fa004f00be0000400600809fbe008d
:1029a0000200fa0030d320009040780020d32000ad
:1029b0001040780080cf50001b00310030d3200041
:1029c00010407800e14f500002003a00f0ce2000a5
:1029d0003040880030408000104078000080fb00cc
:1029e000a0128800304080000000e80030408800dd
:1029f00030d32000104078008040e80030d3200021
:102a0000014878000000eb00000f7800020037005a
:102a1000000000001e0fe8001e007800f40f5000b8
:102a2000fbff36000600370030d320008040eb006b
:102a30000148780020d320008040eb000148780056
:102a40008e60a9000080fa004f00be000040060022
:102a5000809fbe000000fa00d0c4200090407800a3
:102a6000c0c420001040780080cf50001600310014
:102a700070628000104078000080fb00a011880088
:102a8000d0c42000104078008040e800d0c420006e
:102a900001487800706280000000e80070628800e1
:102aa000d0c4200090407800c0c4200010407800be
:102ab00080cf50000a003a00406280000000a00071
:102ac0004062880006003700d0c420008040eb0040
:102ad00001487800c0c420008040eb000148780025
:102ae00087e0a9000080fa004f00be000040060009
:102af000809fbe00821f78000200fa00c02b2000d9
:102b000090628800d0c42000104078000004e000eb
:102b100005003a0040ba200080628800c0c420004e
:102b2000e1c1b30001487800d0c420009040780093
:102b3000c0c420001040780080cf500043003e0009
:102b400080628000b11180008140780001487800e7
:102b50008062800010407800ed4f50000d003a0078
:102b6000406280004400de00634060000040e800f6
:102b7000634060000080fb00630060004400dd00f3
:102b800042628000f1fc2f008100610001007000b2
:102b900040628800416280000003200000806000e5
:102ba000f00f500011003a00806280001040780061
:102bb000ea4f50000d003a00406280004400de0001
:102bc000634060000040e800634060000080fb005c
:102bd000630060004400dd0042628000f1fc2f00d1
:102be000810061000100700040628800d0c42000b4
:102bf000104078000004e00007003a008062800086
:102c000010407800f54f500003003a00c0c4200087
:102c100081c0b30001487800806280000000e800b5
:102c200080628800d0c42000104078008040e80016
:102c3000d0c420000148780090118000610060003d
:102c40000000e000beff3a0002003700400620000e
:102c50009062880090118000620060000000e00037
:102c60000800320003003700b1118000010f780026
:102c70003222a90090118000620060000000e00094
:102c8000f9ff3a0087c0a9000080fa004f017800e0
:102c90004f00be00004006003600f800809fbe00d6
:102ca000829fbe00849fbe00869fbe000600fa0081
:102cb000006580000000e00018003a00105d800010
:102cc0000000e00018003200105d80000000e0000d
:102cd00002003a0010002000105d8800105d8000a6
:102ce0000000e900105d8800115d80008070200008
:102cf000808f50000200360080702000105d880038
:102d0000105d80000000e00007003a000000eb00ca
:102d1000105d88002a0c0700030037000065800062
:102d20000000e90000658800906280000000e0007b
:102d300037003200906280000000e9009062880055
:102d4000906280000000e00031003a00d0c4200012
:102d5000104078000004e0000a003200d0c42000d7
:102d60008040eb0001487800c0c420008040eb00a8
:102d700001487800406280000020a0004062880086
:102d800006003700c06280000090a100c062880089
:102d9000406280000020a0004062880051628000f4
:102da00080072000008060000000e0000e003a0074
:102db0005162800070f82f00008060000030a00099
:102dc00050628800803e2000000f78008070200054
:102dd00010079800115d80001e00900000805000d8
:102de0001e004000105d8800d0c420008040eb0031
:102df00001487800c0c420008040eb000148780002
:102e000041628000f0fc2f0000806000406288007a
:102e1000106580000000e0001e0032001065800098
:102e20000000e90010658800106580000000e000e7
:102e300018003a00c0b420008040eb000148780040
:102e4000d0b420008040eb0001487800505a800048
:102e50000030a100505a8800505a80000010a10094
:102e6000505a8800505a80000000a100505a880033
:102e7000505a80000020a000505a880080b52000e1
:102e80008040eb000148780090b520008040eb00c6
:102e900001487800306580000000e0000900320041
:102ea000306580000000e9003065880030658000f2
:102eb0000000e00003003a00606680000000a0000f
:102ec00060668800406580000000e0000900320074
:102ed000406580000000e900406588004065800092
:102ee0000000e00003003a00606680000010a000cf
:102ef00060668800506580000000e0000900320034
:102f0000506580000000e900506588005065800031
:102f10000000e00003003a00606680000020a0008e
:102f200060668800606580000000e00009003200f3
:102f3000606580000000e9006065880060658000d1
:102f40000000e00003003a00606680000030a0004e
:102f500060668800d04080000000e0000900320078
:102f6000d04080000000e900d0408800d0408000c0
:102f70000000e00003003a00c04080000000a00014
:102f8000c0408800d06480000000e00097003a0054
:102f9000803e2000d064880080c9200090407800e6
:102fa000b0c3b30080cf50008a003a0080c920002f
:102fb0008040eb000148780010c820009040780065
:102fc000b0c3b30080cf50007c003a0010c820008e
:102fd0008040eb00014878001588a800c0408000c0
:102fe0000000a000c040880000c820001040780009
:102ff000f74f50006b003a0000c820008040eb0003
:10300000014878001568a800d0012000100798003a
:10301000e2638000b0aa2a000010b8004308de0076
:103020006c00b900000078000000510020079800f3
:103030002e0090000000e00003003a001000200085
:10304000000f7800470037002e009000e10f50007d
:1030500003003a000000eb00000f78004100370049
:103060002e009000e20f500003003a0010002000f4
:10307000000f78003b0037002e009000e30f500057
:1030800003003a000000eb00000f78003500370025
:103090002e009000e40f500003003a0010002000c2
:1030a000000f78002f0037002e009000e50f500031
:1030b00003003a000000eb00000f78002900370001
:1030c0002e009000e60f500003003a001000200090
:1030d000000f7800230037002e009000e70f50000b
:1030e00003003a000000eb00000f78001d003700dd
:1030f0002e009000e80f500003003a00100020005e
:10310000000f7800170037002e009000e90f5000e4
:1031100003003a0010002000000f78001100370073
:103120002e009000ea0f500003003a000000eb0070
:10313000000f78000b0037002e009000eb0f5000be
:1031400003003a0010002000000f7800050037004f
:103150002e009000ec0f500002003a000000eb003f
:10316000000f78001e0090001e0f4000f0638000ea
:103170009e0f500007003a000000eb00f06388004b
:103180001548a800e06380000000e800e0638800c4
:1031900019003700f06380000000e800f063880049
:1031a0001500370000c82000104078008040e8007b
:1031b00000c82000014878000f00370010c8200028
:1031c000104078008040e80010c8200001487800d6
:1031d0000900370080c92000104078008040e800d6
:1031e00080c920000148780003003700d0648000c7
:1031f0000000e900d06488008460a9000080fa0023
:103200004f03be004f02be004f01be004f00be0084
:103210003600f900004006000000fa008020a900f6
:10322000ffff3700801f78000200fa0010c0b300d3
:10323000004f78008060a9001e4078000004e00084
:10324000fdff3a000080fa004f00780000400600c1
:103250000000fa008040a900ffff37000000fa00dc
:103260008080a900ffff37000040da000000fe0068
:10327000000005006022b800060220000000d00017
:103280008180d2000482d2008582d2000000a0009a
:103290000202520083825a000300310002024200ff
:1032a00083824a000000a1000603e900f3ff3a0010
:0432b0000000060014
:020000040000fa
:1032b4000530000030300000305100005734000069
:1032c4004430000030310000343000003030000061
:1032d4004105000030300000303000005152000041
:1032e400344400003030000031340000323000003b
:1032f40030350000363700000d0a000006300000ab
:1033040030300000300d00000a02000030300000b0
:103314003030000030300000303100003030000028
:103324003030000030300000303000003030000019
:10333400303000003030000030300000033800002e
:10334400340d00000a060000303000003030000068
:043354000d0a00005e
:020000040000fa
:103358000600fa000000eb00000f78000000eb0008
:1033680020079800890107000000fb00000f780083
:103378001e007800e10f500005003a001117800088
:1033880000022000008060000000e00026003a00f3
:10339800f0ff2f0001002000a0408800b140880005
:1033a800c002200020079800c0c62000100798001f
:1033b8000000eb00000f7800070037001e009000a7
:1033c8008040eb00014878001e0fe8001e009000c6
:1033d8000000e800100798002e0090009e0078007a
:1033e800808f5000f5ff39000000eb00e063880093
:1033f8000000eb00f063880000c820008040eb006c
:103408000148780010c820008040eb00014878008f
:10341800d020200060638800201a20007063880094
:10342800e70007000e003700c0c62000c3c2b30083
:1034380000017800010120000040eb000a000700ad
:1034480000000000c0698000620060000000e00029
:10345800fcff3200c06980000010a100c06988002c
:103468000080fa00000006000800fa00004f78000b
:103478001107980022079800634798000200370058
:103488000942a9000642a80041108000004020001f
:10349800008060000000e000f9ff3a000000000032
:1034a80030108000610060000000e000fcff3a007e
:1034b80030108000640060000000e000f8ff3a006f
:1034c80030108000680060000000e000f4ff3a005f
:1034d80030108000700060000000e000f0ff3a004b
:1034e8004110800000002400008060000000e0001f
:1034f800ebff3a0050d3200001cab300014878001e
:10350800a06980000080a100a06988001e009000ca
:103518008040780060d32000014878001e40780081
:103528000004e00007003a00a06980000090a100b4
:10353800a0698800a069800000a0a100a069880097
:103548001d0037001e407800e14f500007003a0088
:10355800a06980000090a000a0698800a069800090
:1035680000a0a100a0698800130037001e40780061
:10357800e24f500007003a00a06980000090a100c7
:10358800a0698800a069800000a0a000a069880048
:10359800090037001e407800e34f500006003a004b
:1035a800a06980000090a000a0698800a069800040
:1035b80000a0a000a06988000000eb00c069880096
:1035c800c0d320008040eb0001487800c06980002b
:1035d8000060a000c06988002e009000f069880093
:1035e800c06980000020a000c0698800a0d3200026
:1035f80021c0b30001487800b0d32000ee4090000d
:103608000148780050d32000f04088000602a80046
:103618000080fa00000006000600fa00004f78005b
:103628001147980012079800434798000100370097
:103638000942a9004110800000402000008060007d
:103648000000e000faff3a0000000000301080009f
:10365800610060000000e000fcff3a0030108000cc
:10366800640060000000e000f8ff3a0030108000bd
:10367800680060000000e000f4ff3a0030108000ad
:10368800700060000000e000f0ff3a004110800088
:1036980000002400008060000000e000ebff3a001a
:1036a80050d3200001cab30001487800a069800007
:1036b8000080a100a069880060d320009e4090008f
:1036c800014878001e4078000004e00007003a0036
:1036d800a06980000090a100a0698800a06980000e
:1036e80000a0a100a06988001d0037001e407800d6
:1036f800e14f500007003a00a06980000090a00048
:10370800a0698800a069800000a0a100a0698800c5
:10371800130037001e407800e24f500007003a00bf
:10372800a06980000090a100a0698800a0698000bd
:1037380000a0a000a0698800090037001e4078009a
:10374800e34f500006003a00a06980000090a000f6
:10375800a0698800a069800000a0a000a069880076
:103768000000eb00c0698800c0d320008040eb0057
:1037780001487800c06980000060a100c069880025
:103788001e009000f0698800c06980000020a00039
:10379800c0698800a0d3200021c0b3000148780088
:1037a800b0d32000ce4090000148780050d32000cc
:1037b800f04088000602a8000080fa000000060019
:1037c8001600fa000000eb00200798000000eb004c
:1037d800000f78000000eb00100798000000eb00d5
:1037e800200798006400470013c0b3000001780068
:1037f8008040eb000040eb0087ff0700000000005e
:10380800c0698000610060000000e000fcff320039
:10381800c06980000000a100c0698800c0c62000ff
:1038280003c1b3000001780001c1b3000040eb0000
:1038380079ff070000000000c06980006100600097
:103848000000e000fcff3200c06980000000a10019
:10385800c0698800c0c7200003c1b3000001780018
:1038680001c2b3000040eb006bff0700000000003e
:10387800c0698000610060000000e000fcff3200c9
:10388800c06980000000a100c06988000000eb004a
:10389800100798000000eb00200798000700370089
:1038a8002e009000000047008040eb006140980027
:1038b8002e0090000000e800200798002e009000dd
:1038c800ef0f5000f6ff3600200020002007980078
:1038d8001c0037000000eb00000f780013003700d1
:1038e8001e009000804078002e0090000040780074
:1038f8006601470003c1b30047ff0700000000004e
:10390800c0698000610060000000e000fcff320038
:10391800c06980000000a100c06988001e009000f6
:1039280070004000100798001e0fe8001e00780085
:10393800ef0f5000eaff36002e0090000000e8006c
:10394800200798002e009000e30f5000e1ff36009a
:10395800c3c0b300c2c8200001c3b3000040eb00dd
:103968002dff070000000000c069800061006000b2
:103978000000e000fcff3200c06980000000a100e8
:10398800c06988000080fa00000006000200fa0002
:1039980013c0b3000e0178008000eb000040eb007c
:1039a800b1fe070000000000c069800062006000ee
:1039b8000000e000fcff3200c06980000010a10098
:1039c800c06988001e407800e14f500002003a00ac
:1039d80010c0b300010037000040eb000080fa007f
:1039e800000006000400fa000000eb001007980031
:1039f8000000eb00000f7800a0408000b14080007c
:103a0800e00f5000e08f5800030032000000eb0088
:103a1800000f780003003700c04080000000a100bc
:103a2800c0408800c0408000610060000000e000e5
:103a380032013200a1408000f03f20008080600009
:103a4800f03f2000808f500024003a00c1c62000bb
:103a58001e007800004078007040400003c1b300a9
:103a680001017800804078000040eb00eafe070082
:103a7800a04080000000a100a0408800a040800075
:103a88000010a100a0408800a04080000020a100f4
:103a9800a0408800a04080000030a100a04088001d
:103aa800a04080000040a100a0408800a040800005
:103ab8000050a100a0408800a04080000060a10044
:103ac800a0408800a04080000070a100a0408800ad
:103ad8001508a9001528a90008013700a140800091
:103ae80000c027008080600000c02700808f500041
:103af8000f003a00c1c720001e007800004078007f
:103b08000042b00003c1b300010178008040780092
:103b18000040eb00c0fe07001548a9001568a90081
:103b28001588a90015a8a90015c8a900f300370031
:103b3800a0408000610060000000e0000d0032003d
:103b4800c1c620001e007800004078007040400088
:103b580023c0b30001017800804078000040eb00ea
:103b6800adfe0700a04080000000a100a040880032
:103b7800e2003700a0408000620060000000e00022
:103b88000d003200e1c620001e00780000407800d9
:103b98007240400023c0b3000101780080407800e3
:103ba8000040eb009cfe0700a04080000010a10030
:103bb800a0408800d1003700a04080006400600069
:103bc8000000e0000d00320001c720001e00780050
:103bd800004078007440400023c0b3000101780021
:103be800804078000040eb008bfe0700a04080007a
:103bf8000020a100a0408800c0003700a04080003d
:103c0800680060000000e0000d00320021c72000bd
:103c18001e007800004078007640400023c0b300c2
:103c280001017800804078000040eb007afe070030
:103c3800a04080000030a100a0408800af003700fd
:103c4800a0408000700060000000e0000d0032001d
:103c580041c720001e0078000040780078404000ee
:103c680023c0b30001017800804078000040eb00d9
:103c780069fe0700a04080000040a100a040880025
:103c88009e003700a14080000002200000806000f4
:103c98000000e0000d00320061c720001e0078001f
:103ca800004078007a40400023c0b300010178004a
:103cb800804078000040eb0057fe0700a0408000dd
:103cc8000050a100a04088008c003700a14080006f
:103cd80000042000008060000000e0000c003200ba
:103ce8001e007800004078007c40400013c0b300fc
:103cf80082c72000804078000040eb0046fe0700a5
:103d0800a04080000060a100a04088007b00370030
:103d1800a140800000082000008060000000e00052
:103d28000c0032001e007800004078007d40400002
:103d380013c0b30092c72000804078000040eb0019
:103d480035fe0700a04080000070a100a040880058
:103d58006a003700a1408000001020000080600049
:103d68000000e0000a0032001e00780000407800e1
:103d78007e40400013c0b300a2c7200080407800f6
:103d88000040eb0024fe07001508a9005b0037007f
:103d9800a140800000202000008060000000e000ba
:103da8000a0032001e007800004078007f40400082
:103db80013c0b300b2c72000804078000040eb0079
:103dc80015fe07001528a9004c003700a140800007
:103dd80000402000008060000000e0000b0032007e
:103de800c1c720001e007800004078000042b000e3
:103df80023c0b30001017800804078000040eb0048
:103e080005fe07001548a9003c003700a1408000c6
:103e180000802000008060000000e0000b003200fd
:103e2800e1c720001e007800004078002042b00062
:103e380023c0b30001017800804078000040eb0007
:103e4800f5fd07001568a9002c003700a140800087
:103e580000002100008060000000e0000a0032003d
:103e68001e007800004078004042b00013c0b30044
:103e780002c82000804078000040eb00e6fd070003
:103e88001588a9001d003700a1408000000022000d
:103e9800008060000000e0000a0032001e00780088
:103ea800004078005042b00013c0b30012c8200090
:103eb800804078000040eb00d7fd070015a8a90056
:103ec8000e003700a140800000002800008060003c
:103ed8000000e000090032001e0078000040780071
:103ee8000043b000c3c0b300c2c8200080407800bf
:103ef8000040eb00c8fd070015e8a9000080fa00a3
:103f0800000006001000fa000040eb00404f980047
:103f18000000eb00000f78000000eb00100798008d
:103f28000000eb00200798000000eb003007980025
:103f38000000eb00700798000c0b0700000f7800da
:103f4800806980000010a100806988001e00780048
:103f5800e10f5000a1023a00e0ce200010407800a6
:103f68000004e0009d023200806980006300600068
:103f7800e10f5000ce013a00e0ce200090407800da
:103f8800f0cc20001040780080cf500003003200b1
:103f9800f0ce20008040eb0001487800f0ce2000f1
:103fa80010407800e34f500017013a0000cf20007e
:103fb800104078000004e00088023a0020cf20007a
:103fc80090407800f0d220000148780030cf2000df
:103fd80090407800e0d220000148780010cf2000ff
:103fe8004007980000cf20008040eb00014878008f
:103ff80010cf2000104078000080fb0020079800b8
:104008000000eb00100798007169800031079800e4
:10401800f40037002e009000e90f50005f003200d6
:10402800e90f500014003e00e40f50003e0032003b
:10403800e40f500007003e00e20f5000300032004d
:10404800e20f500033003e00e10f5000270032001d
:104058008f003700e60f50003d003200e60f500099
:1040680036003900e70f50003e003200e80f5000dc
:104078004100320086003700ee0f50006a0032001f
:10408800ee0f500009003e00eb0f50004f003200c9
:10409800eb0f500048003900ec0f50005000320080
:1040a800ed0f50005700320079003700010a200058
:1040b800810f500068003200010a2000810f500073
:1040c80003003e00ef0f50005e0032007000370022
:1040d800410a2000810f500072003200f10f2000c9
:1040e800810f50006100320069003700e0b5200000
:1040f8005007980020002000100798006a00370039
:1041080000b62000500798002000200010079800f3
:104118006500370020b620005007980020002000d6
:10412800100798006000370080b6200050079800fc
:1041380020002000100798005b003700c0b6200060
:1041480050079800200020001007980056003700fc
:1041580000b72000500798002000200010079800a2
:104168005100370040b6200050079800200020007a
:10417800100798004c003700a0c7200010407800b6
:104188000080fb00700798006e00470050079800f9
:10419800200020001007980043003700e0648000ea
:1041a800700798006e004700500798002000200014
:1041b800100798003c003700c0c72000500798003f
:1041c800200020001007980037003700e0c72000c3
:1041d8005007980020002000100798003200370090
:1041e80000c82000104078000080fb00700798008d
:1041f8006e00470050079800200020001007980024
:104208002900370010c82000104078000080fb000b
:10421800700798006e0047005007980020002000a3
:10422800100798002000370060638000700798002e
:104238006e004700500798002000200010079800e3
:1042480019003700e0c9200050079800200020001e
:104258001007980014003700c0c8200050079800c5
:1042680080002000100798000f0037008069800048
:10427800634060000080fb00700798006e004700f4
:10428800500798002000200010079800060037000b
:10429800200020009e0a070010c0b300404f98007d
:1042a80001003700000000004e4890000004e000c4
:1042b8004a003a001e009000e20f500025003a0024
:1042c8005e00900090407800e0d22000014878001d
:1042d8005e0090000000e800500798005e00900023
:1042e80090407800f0d2200001487800f0d22000f9
:1042f800904078004e009000014878004e009000f1
:104308000000e80040079800e0d2200090407800c4
:104318004e009000014878004e0090000000e80030
:104328004007980000cf20001040780080c0e800c7
:1043380000cf2000014878002e0090000000e8001f
:10434800200798003e0090000000e9003007980020
:10435800240037000000eb00000f78001000370041
:104368005e009000904078004e0090000148780070
:104378005e0090000000e800500798004e00900092
:104388000000e8004007980000cf200010407800a7
:104398008040e80000cf2000014878001e0fe800a8
:1043a8001e0090009e007800808f5000ecff3900be
:1043b8001e0090000000d100be0090000080500058
:1043c800300798001e0090000000d100ae00900059
:1043d8000080400020079800020037000000eb0032
:1043e800300798003e0090000000e00009ff3a0006
:1043f8004e4890000004e00078013a004e0090001a
:104408009e0a070075013700f0ce200010407800a2
:10441800e64f5000a3003a0000cf2000104078007b
:104428000004e0006d013a0020cf200090407800a1
:10443800f0d220000148780030cf2000904078006a
:10444800e0d220000148780020cf200040079800e3
:1044580000cf20008040eb000148780010cf2000fa
:10446800104078000080fb00200798000000eb0057
:1044780010079800f0d22000104078000080fb0060
:10448800c800dd00e0d22000104078000080fb006a
:1044980000804000706988007169800031079800c9
:1044a800770037002e009000e80f500020003200ff
:1044b800e90f500010003200e70f500025003a00c5
:1044c800be009000415b8800405b80007007980048
:1044d800f5050700405b8000800078002e00900002
:1044e800e80607006e0047005007980020002000eb
:1044f800100798001c003700405b80007007980088
:10450800405b800060638800e7050700405b80002f
:10451800800078002e009000da0607006e00470041
:104528005007980020002000100798000e00370060
:10453800a0c72000104078000080fb00700798009a
:104548006e004700500798002000200010079800d0
:104558000500370020002000ed09070010c0b30057
:10456800404f9800000000004e4890000004e00012
:1045780041003a001e009000e20f50001c003a0073
:104588005e00900090407800e0d22000014878005a
:104598005e0090000000e800500798005e00900060
:1045a80090407800f0d2200001487800f0d2200036
:1045b800904078004e009000014878004e0090002e
:1045c8000000e80040079800e0d220009040780002
:1045d8004e009000014878004e0090000000e8006e
:1045e800400798000000eb003007980024003700cf
:1045f8000000eb00000f7800100037005e0090000c
:10460800904078004e009000014878005e009000cd
:104618000000e800500798004e0090000000e800f5
:104628004007980000cf2000104078008040e80044
:1046380000cf2000014878001e0fe8001e009000ff
:104648009e007800808f5000ecff39001e0090001b
:104658000000d100be009000008050003007980094
:104668001e0090000000d100ae00900000804000c5
:1046780020079800020037000000eb003007980080
:104688003e0090000000e00086ff3a004e4890008f
:104698000004e000d1003a004e009000320a070002
:1046a800ce0037001000200099090700cb00370022
:1046b80080698000630060000000e000c7003a00e5
:1046c800e0ce200090407800f0cc20001040780028
:1046d80080cf500003003200f0ce20008040eb0075
:1046e80001487800f0ce200010407800e34f5000d9
:1046f800b4003a0000cf2000104078000004e00029
:10470800b6003a0020cf200090407800f0d2200078
:104718000148780030cf200090407800e0d2200097
:104728000148780010cf20004007980000cf2000f3
:104738008040eb000148780010cf2000104078003e
:104748000080fb00200798000000eb00100798008d
:104758007169800031079800910037002e009000a1
:10476800e40f500021003200e40f500007003e0023
:10477800e20f500013003200e20f500016003e0016
:10478800e10f50000a00320031003700e60f5000f8
:1047980020003200e60f500019003900e70f5000e2
:1047a80021003200e80f50002400320028003700b2
:1047b800e0b520005007980020002000100798005e
:1047c80028003700e0c9200050079800200020008a
:1047d800100798002300370020b6200050079800e3
:1047e80020002000100798001e00370000b72000a6
:1047f8005007980020002000100798001900370083
:1048080040b62000500798002000200010079800ac
:1048180014003700c0c8200050079800c0002000ce
:10482800100798000f003700c0c7200050079800f5
:1048380040002000100798000a003700e0c7200059
:104848005007980040002000100798000500370026
:10485800200020002e09070010c0b300404f980028
:10486800000000004e4890000004e0004a003a00b2
:104878001e009000e20f500025003a005e009000f4
:1048880090407800e0d22000014878005e00900057
:104898000000e800500798005e0090009040780003
:1048a800f0d2200001487800f0d220009040780033
:1048b8004e009000014878004e0090000000e8008b
:1048c80040079800e0d22000904078004e00900009
:1048d800014878004e0090000000e800400798006a
:1048e80000cf20001040780080c0e80000cf2000f2
:1048f800014878002e0090000000e800200798008a
:104908003e0090000000e9003007980024003700be
:104918000000eb00000f7800100037005e009000e8
:10492800904078004e009000014878005e009000aa
:104938000000e800500798004e0090000000e800d2
:104948004007980000cf2000104078008040e80021
:1049580000cf2000014878001e0fe8001e009000dc
:104968009e007800808f5000ecff39001e009000f8
:104978000000d100be009000008050003007980071
:104988001e0090000000d100ae00900000804000a2
:1049980020079800020037000000eb00300798005d
:1049a8003e0090000000e0006cff3a004e48900086
:1049b8000004e00009003a004e0090002f090700ab
:1049c80006003700f0ce200010407800e64f500077
:1049d8000200320010002000cd0807000080fa0015
:1049e800000006001200fa00c000200060079800ce
:1049f8006e009000ec0f500014003a0020c0200018
:104a080030079800a09529004007980030c420007e
:104a18007007980030c120005007980030c020006f
:104a2800000f980020c1200031c4b300014878006d
:104a380050c42000d1c0b3000148780060c42000f1
:104a4800a1c0b300014878001300370040bc200023
:104a580030079800a095290040079800d0bf200093
:104a68007007980050bd20005007980050bc2000e7
:104a7800000f980040bd200011c4b3000148780021
:104a8800f0bf2000d1c0b3000148780000c020006a
:104a9800a1c0b30001487800805b8000c200de003e
:104aa800b04721000008b8000100d100000f7800cd
:104ab8009e007800815b8800215b8000d0cc2c00b0
:104ac8000008b8004308de00000f78001e017800d7
:104ad800225b8800215b800020022000808f50002c
:104ae80004003600c06280000070a000c062880028
:104af80003003700c06280000070a100c062880017
:104b0800f05a80006f006000e40f500007003a0080
:104b1800105b8000c300de00500c22000008b800c3
:104b28004408de00000f780027003700f05a8000a4
:104b38006f006000e30f500007003a00105b800030
:104b4800c200de00b04721000008b8000100d10013
:104b5800000f78001c003700f05a80006f006000da
:104b6800e20f500006003a00115b8000d0cc2c0008
:104b78000008b8004308de00000f78001200370074
:104b8800f05a80006f006000e10f500003003a0007
:104b9800115b8000010f78000b003700f05a80008d
:104ba8006f0060000000e00005003a00105b800024
:104bb8006a00b90000007800000f78000200370092
:104bc8000000eb00000f78001e017800125b8800df
:104bd800f15a800000f02000808060000040200032
:104be800808f500007003a00005b8000c300de00a1
:104bf800500c22000008b8004408de00000f7800be
:104c08002e003700f15a800000f0200080806000fc
:104c180000302000808f500007003a00005b8000c1
:104c2800c200de00b04721000008b8000100d10032
:104c3800000f780021003700f15a800000f02000b2
:104c48008080600000202000808f500006003a001d
:104c5800015b8000d0cc2c000008b8004308de00bf
:104c6800000f780015003700f15a800000f020008e
:104c78008080600000102000808f500003003a0000
:104c8800015b8000010f78000c003700f15a8000aa
:104c980000f02000008060000000e00005003a00fd
:104ca800005b80006a00b90000007800000f7800ff
:104cb800020037000000eb00000f78001e017800aa
:104cc800025b880000cc2000104078000080fb00c8
:104cd800015b80001002b00000014000c0c6200047
:104ce800000041000108780000cc20001040780046
:104cf8008040e80000cc200001487800f065800082
:104d08000000e00004003a0000cc200010407800c9
:104d1800e44f50001e003a0000cc200010407800fc
:104d2800e44f500003003a0000cc20008040eb0024
:104d3800014878000000eb00f06588000000eb00f7
:104d4800000f78000a003700f16580001202200089
:104d58001e00410000014000c0c6200000004100c4
:104d68001000780000804000f06588001e0fe80001
:104d78001e007800e30f5000f3ff3600f065800056
:104d88004200de00f0658800f0658000005b880066
:104d9800405b80000000e80010020700000f780068
:104da8009e007800f1648800f1648000d02420001f
:104db800808f500002003600e0242000f064880054
:104dc80010002000000f78001e0078000000e000ae
:104dd80003003200005b8000d062880002003700c8
:104de800f0648000d0628800205b8000e062880068
:104df800805b8000f0628800e063800000638800c8
:104e0800f063800010638800105b800020638800d6
:104e18009001200030638800c0c82000104078004e
:104e28000080fb00000f78001e0078004c00dd00b9
:104e3800000f7800d0c82000104078000080fb00e8
:104e4800100798001e0090004800dd001007980029
:104e58001e0090001e0f7000e0c82000104078006f
:104e68000080fb00100798001e0090004400dd0041
:104e7800100798001e0090001e0f7000f0c8200058
:104e8800104078000080fb00100798001e0090007a
:104e98001e0f70001e0178005263880000c92000b0
:104ea800104078000080fb00000f78001e0078009a
:104eb8004c00dd00000f780010c920001040780079
:104ec8000080fb00100798001e0090004800dd00dd
:104ed800100798001e0090001e0f700020c92000c7
:104ee800104078000080fb00100798001e0090001a
:104ef8004400dd00100798001e0090001e0f70008f
:104f080030c92000104078000080fb00100798008e
:104f18001e0090001e0f70009e00780041638800fc
:104f280010002000a062880000012000000f780017
:104f38000b0037004e009000904078003e00900033
:104f4800014878003e0090000000e8003007980013
:104f58004e0090000000e800400798001e0fe9008e
:104f68001e0078000000e000f2ff3a003e009000ca
:104f78000000e8003007980040c52000200798008e
:104f88002e009000100f7800f15a8000000f2000ca
:104f980000806000f00f50005b003a00e0cc200079
:104fa80010407800e14f50000c003a00c0628000c9
:104fb80000a0a000c0628800c06280000050a0006d
:104fc800c0628800e0cc2000104078008040e800f3
:104fd800e0cc20000148780006003700e0cc200033
:104fe8008040eb0001487800c06280000050a100ba
:104ff800c0628800f1628000a0052000808f500008
:1050080004003600d162800000222000808f50000a
:1050180004003e00c062800000a0a100c0628800b9
:1050280003003700c062800000a0a000c0628800b2
:10503800f162800010042000808f500004003600c8
:10504800d162800020212000808f500004003e00a3
:10505800c06280000020a000c06288000300370002
:10506800c06280000020a100c0628800d162800078
:10507800e0212000808f50000f003600d1628000b0
:1050880030222000808f50000b003e00f16280002b
:1050980080042000808f500004003600c062800029
:1050a8000020a000c062880003003700c0628000b2
:1050b8000020a100c062880050c0b3000ce8b7000f
:1050c80021638000d0062000808f500003003e003e
:1050d8000000eb00e06488005a003700216380007c
:1050e800d0062000808f50005600360021638000d3
:1050f80040382000808f500052003e0010002000f1
:10510800e06488004f00370021638000b05d200014
:10511800808f50000300360030002000e0648800d3
:105128000600370021638000300b2000808f50007c
:1051380002003e000000eb00e0648800c0628000ce
:1051480000a0a100c0628800c06280000020a10009
:10515800c0628800f06580000000e000390032007d
:10516800015b800070252000808f500004003e0005
:105178002163800050092000808f500028003e00e5
:105188000cc8bf000004e0002e0032000cc8bf00ad
:105198000040e9000ce8b7000cc8bf000004e000bc
:1051a80025003a00e0cc200011c0b3000148780087
:1051b800c06280000050a000c0628800405b800090
:1051c80060638800415b8000606380006500500078
:1051d800808f50001a003e0061638000e0152000b7
:1051e800808f500003003e00c06280000030a000a5
:1051f800c0628800cf00070070638800a04080006c
:105208000000a000a0408800a04080000010a0007e
:10521800a040880080382100d0408800090037006d
:10522800c06280000050a100c062880050c0b30076
:105238000ce8b70003003700000000000100370049
:10524800000000000000eb00100798003300370052
:105258001e009000e80f500006003a00f15a800046
:10526800000f200000806000f00f500001003a009d
:105278001e0fea001e0078004c00de008040780017
:105288003e009000014878003e0090000000e800d1
:105298003007980000f020001e0060004800de0083
:1052a800804078003e009000014878003e00900061
:1052b8000000e80030079800000f20001e00600082
:1052c8004400de00804078003e00900001487800ed
:1052d8003e0090000000e800300798001e007800ab
:1052e80000407800ef4060003e00900001487800e0
:1052f8003e0090000000e800300798002e00900063
:105308000080e800200798002e009000100f780019
:105318001e0090000000e800100798001e00900092
:10532800eb0f5000caff360000032000600798000a
:105338005e019000320798000000eb00000f780033
:10534800150037003e00900010407800e94f5000eb
:1053580007003e003e0090001040780002c3b300f2
:10536800824040003e009000014878000600370067
:105378003e0090001040780072c3b30082404000a5
:105388003e009000014878003e0090000000e800d0
:10539800300798001e0fe8006e0090009e0078000d
:1053a800808f5000e7ff3900020007000080fa00f4
:1053b800000006000c00fa00c0002000500798000a
:1053c8005e009000ec0f500007003a0020c020005b
:1053d800000f780030c420002007980030c020005b
:1053e800100798000600370040bc2000000f780026
:1053f800d0bf20002007980050bc2000100798005c
:105408009e009000010f78000000eb004007980014
:1054180000042000500798000000eb0030079800b7
:105428000b0037001e007800104078008080fb00d9
:105438004e009000008040000003b1004007980033
:105448001e0fe8003e0090000000e80030079800ba
:10545800be0090005e009000808f5000f1ff390080
:105468004e01900032079800be009000000f200007
:10547800008060004400de00804078002e0090002c
:10548800014878002e00900010407800e94f500045
:1054980007003e002e0090001040780002c3b300c1
:1054a800824040002e009000014878000600370036
:1054b8002e0090001040780072c3b3008240400074
:1054c8002e009000014878002e0090000000e800af
:1054d800200798003e00900000407800ef406000f0
:1054e8002e009000014878002e00900010407800af
:1054f800e94f500007003e002e0090001040780051
:1055080002c3b300824040002e009000014878009a
:10551800060037002e0090001040780072c3b300d8
:10552800824040002e009000014878000080fa0078
:10553800000006000600fa006000b8001007980096
:105548002107980061638000d0092000808f5000f7
:10555800040036006063800031f62f00010f400020
:105568000300370060638000d1092000008f5000dd
:1055780080072000010020001007980021079800ec
:10558800ae009000803e20000088b900000178003d
:105598001e0090006000b900000078000001410082
:1055a8009e009000803e20000008b80001014100e4
:1055b800820078001e0178008001eb002bf70700bd
:1055c80010079800210798009e009000010f7800ae
:1055d8001e0078000080fa00000006000a00fa00a9
:1055e800400798004e0090008000eb00008fbe003e
:1055f800ce009000d0092000808f500030003e007f
:10560800d0092000010020003e015000ae81580062
:10561800706380008000eb00009ab90004027800f3
:10562800028bb90086027800050242000010b8001b
:105638000102420084007800008fbe00008fbe0087
:10564800c01c2000010020002007980031079800a6
:10565800be009000803e20000088b900000178005c
:105668002e0090006000b9000000780000014100a1
:10567800ae009000803e20000008b8000101410003
:1056880082007800200798003107980020079800ca
:10569800310798002e009000be0090001e1f500099
:1056a8001e9758001e00be00823e20000300200006
:1056b800eef60700008fbe001e0078002f003700ae
:1056c80034f62f00f5ff2f003e014200ae814a005c
:1056d800706380008000eb00009ab9000402780033
:1056e800028bb90086027800050242000010b8005b
:1056f8000102420084007800008fbe00008fbe00c7
:10570800c01c2000010020002007980031079800e5
:10571800be009000803e20000088b900000178009b
:105728002e0090006000b9000000780000014100e0
:10573800ae009000803e20000008b8000101410042
:105748008200780020079800310798002007980009
:10575800310798002e009000be0090001e0f4000f8
:105768005e9748001e00be00823e20000300200015
:10577800bef60700008fbe001e0078000080fa0009
:10578800000006000000fa0020c8bf000040e80042
:1057980020e8b700406280000010a1004062880045
:1057a800509a290070628800d0c420008040eb0025
:1057b80001487800c0c4200071c0b30001487800d7
:1057c800406280000000a1004062880040ca2000ba
:1057d8001040780021e8b70021c8bf000080fb0016
:1057e800a0118800d0c42000104078008040e80054
:1057f800d0c4200001487800706280000000e800f2
:10580800706288000080fa00000006000c00fa00b0
:105818000000eb009062880040ba20001040780039
:10582800f54f500021003a00406280000020a0009f
:10583800406288005162800080072000008060007c
:105848000000e00017003a00807020004007980030
:10585800803e200050079800115d80004e009000a7
:10586800808050005e00900000804000105d88003d
:10587800506280004300de006f4060000040e80096
:105888006f4060000080fb006f0060004300dd0097
:105898005262800071f82f008100610001007000e1
:1058a80050628800e9050700fd003700d0c42000d9
:1058b80010407800e74f500079003a00009829001e
:1058c800000f780040ba20001007980010c0b300fd
:1058d800404798000000eb0030079800230037008d
:1058e8001e007800104078000080fb0040079800f8
:1058f8001e009000104078000080fb0050079800c0
:10590800ce0090005e009000808f500010003200a2
:105918003e0090000000e00005003a005e009000a4
:105928008040780040ca200001487800080037000d
:1059380040ca200061c0b300014878000040eb0075
:1059480040479800406280000020a0004062880024
:105958001e0fe8001e0090000000e80010079800e5
:105968003e0090000000e80030079800d0c42000f6
:10597800104078008080fb003e009000808f50002f
:10598800d7ff3e004e4090000004e0001e003200a9
:10599800506280004300de006f4060000080fb0022
:1059a8000000e0000a0034008070200040079800e2
:1059b800803e200050079800115d80005e00900036
:1059c800808050004e00900000804000105d8800ec
:1059d800406280000010a000406288005162800090
:1059e80070f82f000080600050628800d0c420004a
:1059f8008040eb0001487800c0c420008040eb00e4
:105a080001487800a6003700d0c420008040eb0091
:105a180001487800c0c420008040eb0001487800ad
:105a2800406280000020a00040628800516280002f
:105a380080072000008060000000e00098003a0025
:105a4800506280004300de006f4060000040e800c4
:105a58006f4060000080fb006f0060004300dd00c5
:105a68005262800071f82f0081006100010070000f
:105a7800506288008070200040079800803e200017
:105a880050079800115d80004e0090008080500003
:105a98005e00900000804000105d880080003700a4
:105aa800d0c4200010407800fe4f50006f003a002c
:105ab80070982900000f780040ba2000100798005d
:105ac80010c0b300404798000000eb003007980072
:105ad800180037001e007800104078000080fb0096
:105ae800400798001e009000104078000080fb00de
:105af80050079800ce0090005e009000808f500004
:105b0800050032000040eb004047980040628000ea
:105b18000020a000406288001e0fe8001e009000d0
:105b28000000e800100798003e0090000000e80020
:105b380030079800d0c42000104078008080fb0017
:105b48003e009000808f5000e2ff3e004e409000e3
:105b58000004e0001f003200506280004300de00b5
:105b68006f4060000080fb000000e0000a00340085
:105b78008070200040079800803e20005007980061
:105b8800115d80005e009000808050004e00900003
:105b980000804000105d8800406280000010a10075
:105ba800406288005162800070f82f000080600019
:105bb80050628800d0c420008040eb000148780083
:105bc800c0c420008040eb0001487800edfe0700cb
:105bd80033003700d0c420008040eb000148780033
:105be800c0c420008040eb0001487800406280007b
:105bf8000020a000406288005162800080072000d9
:105c0800008060000000e00025003a00506280003b
:105c18004300de006f4060000040e8006f40600015
:105c28000080fb006f0060004300dd0052628000ce
:105c380071f82f0081006100010070005062880037
:105c48008070200040079800803e20005007980090
:105c5800115d80004e009000808050005e00900032
:105c680000804000105d88000d0037004062800011
:105c78000010a000406288005162800070f82f0078
:105c88000080600050628800d0c420008040eb0093
:105c980001487800c0c420008040eb00014878002b
:105ca8000080fa00000006000000fa00e0b42000be
:105cb80001c7b30001487800f0b4200071c7b300f1
:105cc8000148780000b5200041c6b30001487800bb
:105cd80010b52000d1c3b3000148780020b52000da
:105ce80001c3b3000148780030b5200041c3b300b8
:105cf8000148780040b5200031c3b300014878005e
:105d080050b5200001c3b3000148780080b52000d9
:105d180081c0b3000148780090b520008040eb00b6
:105d280001487800505a80000030a000505a88007e
:105d3800505a80000010a100505a8800505a800024
:105d48000000a100505a8800b15a8000f0cf2f00ff
:105d5800008060000080a000b05a880090b5200044
:105d680011c0b30001487800a104800000002100a0
:105d7800008060000000e00001003a009580a80063
:105d8800e0b42000104078000080fb00201188005b
:105d98000000000080b52000104078000004e000fa
:105da800fcff3a00505a80000030a100505a880089
:105db8000080fa00000006000400fa00505a800033
:105dc800680060000000e00051003a00e0b42000e4
:105dd80011c0b30001487800f0b4200031c0b3000e
:105de8000148780000b520008040eb0001487800a9
:105df80010b520008040eb000148780020b5200055
:105e08008040eb000148780030b5200021c2b30083
:105e18000148780080b5200061c0b30001487800cf
:105e280090b520008040eb0001487800c0b4200005
:105e38008040eb0001487800d0b420008040eb009f
:105e480001487800505a80000030a000505a88005d
:105e5800505a80000010a100505a8800505a800003
:105e68000000a100505a880080b52000104078003a
:105e780080407800e0b420004b010700000f780054
:105e88001e0078002047980040b52000ae409000e2
:105e9800014878001e0078004800de00204798007e
:105ea80050b52000ae4090000148780080b5200031
:105eb8001040780080c0e80080b5200001487800d4
:105ec800b15a8000f0cf2f00008060000090a00041
:105ed800b05a880090b5200011c0b300014878007e
:105ee800a104800000002100008060000000e000a4
:105ef80001003a009580a800e0b420001040780026
:105f08000080fb0020118800c02b2000106588004d
:105f18000080fa00000006000800fa002007980038
:105f280061479800505a8000680060000000e00057
:105f380052003a00e0b4200011c0b30001487800d4
:105f4800f0b4200031c0b300014878002e00900062
:105f58004800de008040780000b520000148780045
:105f68002e0090008040780010b52000014878008d
:105f780020b520008040eb000148780030b52000b3
:105f8800ee4090000148780080b5200061c0b30061
:105f98000148780090b520008040eb000148780067
:105fa800c0b420008040eb0001487800d0b4200045
:105fb8008040eb0001487800505a80000030a00073
:105fc800505a8800505a80000010a100505a88008a
:105fd800505a80000000a100505a880080b5200067
:105fe8001040780080407800e0b42000ee00070000
:105ff800000f78001e0078002047980040b5200068
:10600800ae409000014878001e0078004800de008d
:106018002047980050b52000ae4090000148780015
:1060280080b520001040780080c0e80080b52000ce
:1060380001487800b15a8000f0cf2f00008060003e
:106048000090a000b05a880090b5200011c0b3009d
:1060580001487800a1048000000021000080600051
:106068000000e00001003a009580a800e0b420009c
:10607800104078000080fb00201188000080fa00a2
:10608800000006000800fa00200798003107980071
:10609800505a8000680060000000e00057003a0095
:1060a800e0b4200011c0b30001487800f0b420002b
:1060b80061c0b300014878002e0090004800de005f
:1060c8008040780000b52000014878002e0090003c
:1060d8008040780010b52000014878003e0090000c
:1060e8004800de008040780020b520000148780094
:1060f8003e0090008040780030b5200001487800cc
:1061080080b5200061c0b3000148780090b5200038
:106118008040eb0001487800c0b420008040eb00cc
:1061280001487800d0b420008040eb000148780096
:10613800505a80000030a000505a8800505a800001
:106148000010a100505a8800505a80000000a10099
:10615800505a8800004b20001065880080b5200048
:106168001040780080407800e0b420008e000700de
:10617800000f78001e0078002047980040b52000e6
:10618800ae409000014878001e0078004800de000c
:106198002047980050b52000ae4090000148780094
:1061a80080b520001040780080c0e80080b520004d
:1061b80001487800b15a8000f0cf2f0000806000bd
:1061c8000080a000b05a880090b5200011c0b3002c
:1061d80001487800a10480000000210000806000d0
:1061e8000000e00001003a009580a800e0b420001b
:1061f800104078000080fb00201188000080fa0021
:10620800000006000a00fa000080eb00000f78008a
:106218000040eb00204798004082200020079800ab
:10622800d0b420001040780000c0e9002047980052
:106238001d0037002e009000104078000080fb0001
:106248001e0f68002e0090000000e800200798004c
:106258000040eb0030479800100037001e0078001f
:1062680061006000004078000004e0000500320092
:106278001e0078008000d10010002a00008f6800fe
:10628800030037001e0078000000d100000f7800de
:106298003e4090000040e800304798003e409000a3
:1062a800e74f5000edff36002e4090000080fb00c5
:1062b8000000ea004f00de0000407800ae40900089
:1062c8008140e900214798000004e000d9ff3a0026
:1062d8004082200020079800d0b4200010407800a9
:1062e8000080fb000080e900ae00900000804000c4
:1062f800200798002e009000104078000080fb00d6
:10630800300798003e0090004800dd0030079800f4
:106318002e0090000000e800200798002e00900052
:10632800104078000080fb00be0090000100700063
:10633800300798002e009000104078000080fb0085
:10634800400798004e0090004800dd004007980084
:106358002e0090000000e900200798002e00900011
:10636800104078000080fb00ce0090000100700013
:10637800400798003e0090009e007800808f5000f3
:10638800040032004e0090009e007800808f50007c
:1063980002003a0010002000010037000000eb0066
:1063a8000080fa00000006000a00fa003007980092
:1063b800014f98000080eb00000f78000040eb00d0
:1063c80020479800be009000210798008e48900052
:1063d800214798001d0037002e00900010407800db
:1063e8000080fb001e0f68002e0090000000e800ef
:1063f800200798000040eb00304798001000370055
:106408001e00780061006000004078000004e00091
:10641800050032001e0078008000d10010002a001c
:10642800008f6800030037001e0078000000d100cc
:10643800000f78003e4090000040e8003047980088
:106448003e409000e74f5000edff36002e40900090
:106458000080fb000000ea004f00de0000407800ea
:10646800ae4090008140e900214798000004e00018
:10647800d9ff3a001e0078000080fa0000000600ec
:106488000400fa0029050700803e2000d064880037
:10649800805c20000065880041628000f0f32f00d6
:1064a800008060000060a000406288000000eb00ef
:1064b800f065880000cc20008040eb00014878009f
:1064c80080ce200011c0b30001487800007d200074
:1064d800a066880000f42100e0668800803821006a
:1064e8002067880040ca200061c0b30001487800d6
:1064f800a6030700200407005e0407002f05070015
:10650800c8040700ec040700cd02a900cd22a900a9
:10651800cd42a900cd62a900cd82a900cc62a90014
:10652800cc82a900cca2a900dc22a80000000000af
:1065380001658000403d2000808f5000fcff3e0038
:10654800dc22a9000000000001658000001e200078
:10655800808f5000fcff3e00dc22a80000000000f5
:106568000165800000192000808f5000fcff3e006c
:10657800dc22a90000000000016580000014200052
:10658800808f5000fcff3e00dc22a80000000000c5
:1065980001658000000f2000808f5000fcff3e0046
:1065a800dc22a9000000000001658000000a20002c
:1065b800808f5000fcff3e00dc22a8000000000095
:1065c8000165800000052000808f5000fcff3e0020
:1065d800dc22a90000000000006580000000e00047
:1065e800fdff3a00505a8000640060000000e0009f
:1065f8000200320040002000b9030700515a800011
:1066080080ff2f0000806000505a8800eafd0700d4
:10661800401f2000105d880000000000505a8000d4
:10662800670060000000e000fcff3200505a800064
:10663800640060000000e000eaff3a00100020005b
:10664800a703070000000000006580000000e000cc
:10665800fdff3a00dc22a9003df30700cbf4070058
:106668000000fb0010079800a0c72000c1c2b300bb
:10667800014878001508a80080382100d04088001b
:10668800c0c8200011c0b30001487800d0c820005d
:1066980091c0b30001487800e0c820008040eb00ba
:1066a80001487800f0c8200091c0b3000148780084
:1066b80000c9200011c0b3000148780010c92000ab
:1066c80021c0b3000148780020c9200011c0b300e0
:1066d8000148780030c9200051c0b3000148780053
:1066e80094fb0700706388006ffd0700d12020002d
:1066f8009000200063fe070000000000505a800050
:10670800610060000000e000fcff3200505a800089
:106718000000a100505a88009e009000010f7800e8
:106728000000eb00000f78009e009000010f780039
:106738000000eb00000f78001e009000e10f5000f1
:1067480028003200d1202000900020004dfe0700d4
:1067580000000000505a8000610060000000e00066
:10676800fcff3200505a80000000a100505a8800f7
:10677800d12020007000200042fe07000000000029
:10678800505a8000610060000000e000fcff320009
:10679800505a80000000a100505a88000000eb0009
:1067a8001603070010002000100798000e80e8006c
:1067b80013c0b300000178008040eb000040eb00fc
:1067c80095f3070000000000c069800061006000c8
:1067d8000000e000fcff3200c06980000000a1005a
:1067e800c069880011178000000220000080600046
:1067f8000000e0002d003a0011178000000820007a
:10680800008060000000e0001a003a00d02020005c
:106818006063880047fb070070638800a040800021
:106828000000a000a0408800a04080000010a00048
:10683800a040880080382100d0408800d120200066
:10684800700020000ffe070000000000505a800072
:10685800610060000000e000fcff3200505a800038
:106868000000a100505a880050002000e3020700f1
:10687800140037008000eb007000200001fe0700c4
:1068880000000000505a8000610060000000e00035
:10689800fcff3200505a80000000a100505a8800c6
:1068a8000000eb00d5020700060037001117800032
:1068b80000082000008060000000e00001003200b5
:1068c800101780000000eb00100798000300370045
:1068d800000000000100370000000000505a80004e
:1068e800620060000000e00038003200f10880001b
:1068f80000002800008060000000e00001003a006d
:106908001f040700606780000000a000606788001f
:10691800515a8000f0f02f0000806000505a880023
:10692800616680000007200000806000f00f5000c2
:106938000700320061668000f0f82f0000806000d8
:106948000040a0006066880010002000e4020700f4
:1069580024f80700505a80000010a100505a8800ff
:1069680090118000620060000000e0000700320023
:1069780002003700b01180001007980090118000c5
:10698800620060000000e000faff3a004062800008
:10699800640060000000e00004003200803e200037
:1069a800105d8800a901070046003700406280009a
:1069b800640060000000e00042003a00807020009f
:1069c800105d8800a10107003e003700505a800082
:1069d800640060000000e0003a003200505a800075
:1069e8004400de006f4060000040e8006f40600037
:1069f8000080fb006f0060004400dd00525a8000f8
:106a0800f1f02f008100610001007000505a8800e9
:106a1800505a80004400de006f4060000080fb0098
:106a2800e70f500015003400515a8000f0f02f0095
:106a3800008060000070a000505a8800803e20004e
:106a4800105d88006166800000072000808060007b
:106a580000042000808f500017003200616680001b
:106a6800f0f82f00008060000060a00060668800d9
:106a7800400020009a0207000f003700505a80009b
:106a8800640060000000e000040032008070200014
:106a9800105d88006d01070007003700505a80001c
:106aa800640060000000e00003003a0080702000ed
:106ab800105d880065010700505a80000020a10081
:106ac800505a8800416280000003200080806000e6
:106ad80000022000808f500005003a0041628000cb
:106ae800f0fc2f00008060004062880047fb070030
:106af800c0698000640060000000e00005003a0002
:106b0800c0408000610060000000e0000100320029
:106b1800b4f3070080698000620060000000e000b4
:106b280001003200f7f40700111780000008200068
:106b3800008060000000e00065ff3200111780004f
:106b480000042000008060000000e00062ff3a00be
:106b58000000000011178000000420000080600081
:106b68000000e000fbff32005cff37000a00fa007b
:106b78000080eb00000f78000040eb0020479800f1
:106b8800e0ce20002007980030d320001040780085
:106b980000c0e900204798001d0037002e00900033
:106ba800104078000080fb001e0f68002e00900047
:106bb8000000e800200798000040eb0030479800ec
:106bc800100037001e007800610060000040780067
:106bd8000004e000050032001e0078008000d100ab
:106be80010002a00008f6800030037001e0078009c
:106bf8000000d100000f78003e4090000040e800ff
:106c0800304798003e409000e74f5000edff3600b7
:106c18002e4090000080fb000000ea004f00de00dc
:106c280000407800ae4090008140e900214798007c
:106c38000004e000d9ff3a00e0ce200020079800c9
:106c480030d32000104078000080fb000080e9006d
:106c5800ae00900000804000200798002e009000b1
:106c6800104078000080fb00300798003e0090003c
:106c78004800dd00300798002e0090000000e80072
:106c8800200798002e009000104078000080fb003c
:106c9800be00900001007000300798002e009000a0
:106ca800104078000080fb00400798004e009000dc
:106cb8004800dd00400798002e0090000000e90021
:106cc800200798002e009000104078000080fb00fc
:106cd800ce00900001007000400798003e00900030
:106ce8009e007800808f5000040032004e00900013
:106cf8009e007800808f500002003a0010002000ab
:106d0800010037000000eb000080fa0000000600d8
:106d18000400fa00204798002e409000f04f5000e1
:106d28000c003200ae40900000c2b30080cf50008b
:106d380008003200ae40900000c3b30080cf50007e
:106d480004003200ae40900000c4b30080cf500071
:106d580004003a00f0ce200021c2b30001487800b8
:106d6800120037002e409000f14f50000c00320006
:106d7800ae40900010c2b30080cf5000080032002f
:106d8800ae40900010c3b30080cf50000400320022
:106d9800ae40900010c4b30080cf500003003a000a
:106da800f0ce200021c2b3000148780020d3200093
:106db80051c0b3000148780030d320008040eb0078
:106dc80001487800f0ce200010407800804078001c
:106dd8000174a000f0ce20000148780000cf200008
:106de800ae4090000148780031c0b300e0ce2000ea
:106df8006dfd0700000f78001e00780080407800c5
:106e080010cf2000014878001e0078004800de00fe
:106e18009067880091128000004020000080600088
:106e28000000e00005003a005342a80004003700c3
:106e38008e60a9009e60a8000100370000000000d5
:106e480070048000680060000000e000f8ff3a006d
:106e5800e0ce2000104078000080fb00a0128800df
:106e680030d32000104078008040e80030d3200064
:106e7800014878000080fa00000006000400fa00cb
:106e88001007980000cf200010407800e340400031
:106e980020d320000148780030d320008040eb0048
:106ea8000148780020d32000104078008040780006
